{
  "_format": "hh-sol-artifact-1",
  "contractName": "MultiSig",
  "sourceName": "contracts/MultiSig.sol",
  "abi": [
    {
      "inputs": [
        {
          "internalType": "address[]",
          "name": "_owners",
          "type": "address[]"
        },
        {
          "internalType": "uint256",
          "name": "_quorumRequired",
          "type": "uint256"
        }
      ],
      "stateMutability": "nonpayable",
      "type": "constructor"
    },
    {
      "inputs": [
        {
          "internalType": "uint256",
          "name": "transactionIndex",
          "type": "uint256"
        }
      ],
      "name": "TxAlreadyApproved",
      "type": "error"
    },
    {
      "inputs": [
        {
          "internalType": "uint256",
          "name": "transactionIndex",
          "type": "uint256"
        }
      ],
      "name": "TxAlreadySent",
      "type": "error"
    },
    {
      "inputs": [
        {
          "internalType": "uint256",
          "name": "transactionIndex",
          "type": "uint256"
        }
      ],
      "name": "TxNotExists",
      "type": "error"
    },
    {
      "anonymous": false,
      "inputs": [
        {
          "indexed": true,
          "internalType": "address",
          "name": "owner",
          "type": "address"
        },
        {
          "indexed": true,
          "internalType": "uint256",
          "name": "transactionIndex",
          "type": "uint256"
        }
      ],
      "name": "ApproveWithdrawTx",
      "type": "event"
    },
    {
      "anonymous": false,
      "inputs": [
        {
          "indexed": true,
          "internalType": "address",
          "name": "owner",
          "type": "address"
        },
        {
          "indexed": true,
          "internalType": "uint256",
          "name": "transactionIndex",
          "type": "uint256"
        },
        {
          "indexed": true,
          "internalType": "address",
          "name": "to",
          "type": "address"
        },
        {
          "indexed": false,
          "internalType": "uint256",
          "name": "amount",
          "type": "uint256"
        }
      ],
      "name": "CreateWithdrawTx",
      "type": "event"
    },
    {
      "anonymous": false,
      "inputs": [
        {
          "indexed": true,
          "internalType": "address",
          "name": "sender",
          "type": "address"
        },
        {
          "indexed": false,
          "internalType": "uint256",
          "name": "amount",
          "type": "uint256"
        },
        {
          "indexed": false,
          "internalType": "uint256",
          "name": "balance",
          "type": "uint256"
        }
      ],
      "name": "Deposit",
      "type": "event"
    },
    {
      "inputs": [
        {
          "internalType": "uint256",
          "name": "_transactionIndex",
          "type": "uint256"
        }
      ],
      "name": "approveWithdrawTx",
      "outputs": [],
      "stateMutability": "nonpayable",
      "type": "function"
    },
    {
      "inputs": [],
      "name": "balanceOf",
      "outputs": [
        {
          "internalType": "uint256",
          "name": "",
          "type": "uint256"
        }
      ],
      "stateMutability": "view",
      "type": "function"
    },
    {
      "inputs": [
        {
          "internalType": "address",
          "name": "_to",
          "type": "address"
        },
        {
          "internalType": "uint256",
          "name": "_amount",
          "type": "uint256"
        }
      ],
      "name": "createWithdrawTx",
      "outputs": [],
      "stateMutability": "nonpayable",
      "type": "function"
    },
    {
      "inputs": [],
      "name": "deposit",
      "outputs": [],
      "stateMutability": "payable",
      "type": "function"
    },
    {
      "inputs": [],
      "name": "getOwners",
      "outputs": [
        {
          "internalType": "address[]",
          "name": "",
          "type": "address[]"
        }
      ],
      "stateMutability": "view",
      "type": "function"
    },
    {
      "inputs": [
        {
          "internalType": "uint256",
          "name": "_transactionIndex",
          "type": "uint256"
        }
      ],
      "name": "getWithdrawTx",
      "outputs": [
        {
          "internalType": "address",
          "name": "to",
          "type": "address"
        },
        {
          "internalType": "uint256",
          "name": "amount",
          "type": "uint256"
        },
        {
          "internalType": "uint256",
          "name": "approvals",
          "type": "uint256"
        },
        {
          "internalType": "bool",
          "name": "sent",
          "type": "bool"
        }
      ],
      "stateMutability": "view",
      "type": "function"
    },
    {
      "inputs": [],
      "name": "getWithdrawTxCount",
      "outputs": [
        {
          "internalType": "uint256",
          "name": "",
          "type": "uint256"
        }
      ],
      "stateMutability": "view",
      "type": "function"
    },
    {
      "inputs": [],
      "name": "getWithdrawTxes",
      "outputs": [
        {
          "components": [
            {
              "internalType": "address",
              "name": "to",
              "type": "address"
            },
            {
              "internalType": "uint256",
              "name": "amount",
              "type": "uint256"
            },
            {
              "internalType": "uint256",
              "name": "approvals",
              "type": "uint256"
            },
            {
              "internalType": "bool",
              "name": "sent",
              "type": "bool"
            }
          ],
          "internalType": "struct MultiSig.WithdrawTx[]",
          "name": "",
          "type": "tuple[]"
        }
      ],
      "stateMutability": "view",
      "type": "function"
    },
    {
      "inputs": [
        {
          "internalType": "uint256",
          "name": "",
          "type": "uint256"
        },
        {
          "internalType": "address",
          "name": "",
          "type": "address"
        }
      ],
      "name": "isApproved",
      "outputs": [
        {
          "internalType": "bool",
          "name": "",
          "type": "bool"
        }
      ],
      "stateMutability": "view",
      "type": "function"
    },
    {
      "inputs": [
        {
          "internalType": "address",
          "name": "",
          "type": "address"
        }
      ],
      "name": "isOwner",
      "outputs": [
        {
          "internalType": "bool",
          "name": "",
          "type": "bool"
        }
      ],
      "stateMutability": "view",
      "type": "function"
    },
    {
      "inputs": [
        {
          "internalType": "uint256",
          "name": "",
          "type": "uint256"
        }
      ],
      "name": "owners",
      "outputs": [
        {
          "internalType": "address",
          "name": "",
          "type": "address"
        }
      ],
      "stateMutability": "view",
      "type": "function"
    },
    {
      "inputs": [],
      "name": "quorumRequired",
      "outputs": [
        {
          "internalType": "uint256",
          "name": "",
          "type": "uint256"
        }
      ],
      "stateMutability": "view",
      "type": "function"
    },
    {
      "inputs": [
        {
          "internalType": "uint256",
          "name": "",
          "type": "uint256"
        }
      ],
      "name": "withdrawTxes",
      "outputs": [
        {
          "internalType": "address",
          "name": "to",
          "type": "address"
        },
        {
          "internalType": "uint256",
          "name": "amount",
          "type": "uint256"
        },
        {
          "internalType": "uint256",
          "name": "approvals",
          "type": "uint256"
        },
        {
          "internalType": "bool",
          "name": "sent",
          "type": "bool"
        }
      ],
      "stateMutability": "view",
      "type": "function"
    },
    {
      "stateMutability": "payable",
      "type": "receive"
    }
  ],
  "bytecode": "0x60806040523480156200001157600080fd5b5060405162001ada38038062001ada833981810160405281019062000037919062000505565b60008251116200007e576040517f08c379a00000000000000000000000000000000000000000000000000000000081526004016200007590620005cc565b60405180910390fd5b60008111801562000090575081518111155b620000d2576040517f08c379a0000000000000000000000000000000000000000000000000000000008152600401620000c99062000664565b60405180910390fd5b60005b8251811015620002cc576000838281518110620000f757620000f662000686565b5b60200260200101519050600073ffffffffffffffffffffffffffffffffffffffff168173ffffffffffffffffffffffffffffffffffffffff160362000173576040517f08c379a00000000000000000000000000000000000000000000000000000000081526004016200016a9062000705565b60405180910390fd5b600160008273ffffffffffffffffffffffffffffffffffffffff1673ffffffffffffffffffffffffffffffffffffffff16815260200190815260200160002060009054906101000a900460ff161562000203576040517f08c379a0000000000000000000000000000000000000000000000000000000008152600401620001fa9062000777565b60405180910390fd5b60018060008373ffffffffffffffffffffffffffffffffffffffff1673ffffffffffffffffffffffffffffffffffffffff16815260200190815260200160002060006101000a81548160ff0219169083151502179055506000819080600181540180825580915050600190039060005260206000200160009091909190916101000a81548173ffffffffffffffffffffffffffffffffffffffff021916908373ffffffffffffffffffffffffffffffffffffffff160217905550508080600101915050620000d5565b5080600281905550505062000799565b6000604051905090565b600080fd5b600080fd5b600080fd5b6000601f19601f8301169050919050565b7f4e487b7100000000000000000000000000000000000000000000000000000000600052604160045260246000fd5b6200034082620002f5565b810181811067ffffffffffffffff8211171562000362576200036162000306565b5b80604052505050565b600062000377620002dc565b905062000385828262000335565b919050565b600067ffffffffffffffff821115620003a857620003a762000306565b5b602082029050602081019050919050565b600080fd5b600073ffffffffffffffffffffffffffffffffffffffff82169050919050565b6000620003eb82620003be565b9050919050565b620003fd81620003de565b81146200040957600080fd5b50565b6000815190506200041d81620003f2565b92915050565b60006200043a62000434846200038a565b6200036b565b9050808382526020820190506020840283018581111562000460576200045f620003b9565b5b835b818110156200048d57806200047888826200040c565b84526020840193505060208101905062000462565b5050509392505050565b600082601f830112620004af57620004ae620002f0565b5b8151620004c184826020860162000423565b91505092915050565b6000819050919050565b620004df81620004ca565b8114620004eb57600080fd5b50565b600081519050620004ff81620004d4565b92915050565b600080604083850312156200051f576200051e620002e6565b5b600083015167ffffffffffffffff81111562000540576200053f620002eb565b5b6200054e8582860162000497565b92505060206200056185828601620004ee565b9150509250929050565b600082825260208201905092915050565b7f6f776e6572732072657175697265640000000000000000000000000000000000600082015250565b6000620005b4600f836200056b565b9150620005c1826200057c565b602082019050919050565b60006020820190508181036000830152620005e781620005a5565b9050919050565b7f696e76616c6964206e756d626572206f662072657175697265642071756f727560008201527f6d00000000000000000000000000000000000000000000000000000000000000602082015250565b60006200064c6021836200056b565b91506200065982620005ee565b604082019050919050565b600060208201905081810360008301526200067f816200063d565b9050919050565b7f4e487b7100000000000000000000000000000000000000000000000000000000600052603260045260246000fd5b7f696e76616c6964206f776e657200000000000000000000000000000000000000600082015250565b6000620006ed600d836200056b565b9150620006fa82620006b5565b602082019050919050565b600060208201905081810360008301526200072081620006de565b9050919050565b7f6f776e6572206e6f7420756e6971756500000000000000000000000000000000600082015250565b60006200075f6010836200056b565b91506200076c8262000727565b602082019050919050565b60006020820190508181036000830152620007928162000750565b9050919050565b61133180620007a96000396000f3fe6080604052600436106100c65760003560e01c80634b465d741161007f578063722713f711610059578063722713f7146102ec578063a0e67e2b14610317578063a9d3106614610342578063d0e30db0146103825761011d565b80634b465d741461025957806356c31637146102845780636747dad7146102c15761011d565b8063025e7c2714610122578063088868e81461015f57806318158b1e1461018a5780631b671a40146101ca5780632f54bf6e146101f35780633ebae36f146102305761011d565b3661011d573373ffffffffffffffffffffffffffffffffffffffff167f90890809c654f11d6e72a28fa60149770a0d11ec6c92319d6ceb2bb0a4ea1a153447604051610113929190610cc4565b60405180910390a2005b600080fd5b34801561012e57600080fd5b5061014960048036038101906101449190610d1e565b61038c565b6040516101569190610d8c565b60405180910390f35b34801561016b57600080fd5b506101746103cb565b6040516101819190610da7565b60405180910390f35b34801561019657600080fd5b506101b160048036038101906101ac9190610d1e565b6103d1565b6040516101c19493929190610ddd565b60405180910390f35b3480156101d657600080fd5b506101f160048036038101906101ec9190610d1e565b61043e565b005b3480156101ff57600080fd5b5061021a60048036038101906102159190610e4e565b610822565b6040516102279190610e7b565b60405180910390f35b34801561023c57600080fd5b5061025760048036038101906102529190610e96565b610842565b005b34801561026557600080fd5b5061026e610a26565b60405161027b9190611007565b60405180910390f35b34801561029057600080fd5b506102ab60048036038101906102a69190611029565b610b0a565b6040516102b89190610e7b565b60405180910390f35b3480156102cd57600080fd5b506102d6610b39565b6040516102e39190610da7565b60405180910390f35b3480156102f857600080fd5b50610301610b46565b60405161030e9190610da7565b60405180910390f35b34801561032357600080fd5b5061032c610b4e565b6040516103399190611118565b60405180910390f35b34801561034e57600080fd5b5061036960048036038101906103649190610d1e565b610bdc565b6040516103799493929190610ddd565b60405180910390f35b61038a610c59565b005b6000818154811061039c57600080fd5b906000526020600020016000915054906101000a900473ffffffffffffffffffffffffffffffffffffffff1681565b60025481565b600481815481106103e157600080fd5b90600052602060002090600402016000915090508060000160009054906101000a900473ffffffffffffffffffffffffffffffffffffffff16908060010154908060020154908060030160009054906101000a900460ff16905084565b600160003373ffffffffffffffffffffffffffffffffffffffff1673ffffffffffffffffffffffffffffffffffffffff16815260200190815260200160002060009054906101000a900460ff166104ca576040517f08c379a00000000000000000000000000000000000000000000000000000000081526004016104c190611197565b60405180910390fd5b8060048054905081111561051557806040517fcfcd3b3200000000000000000000000000000000000000000000000000000000815260040161050c9190610da7565b60405180910390fd5b816003600082815260200190815260200160002060003373ffffffffffffffffffffffffffffffffffffffff1673ffffffffffffffffffffffffffffffffffffffff16815260200190815260200160002060009054906101000a900460ff16156105b657806040517f6b771e4a0000000000000000000000000000000000000000000000000000000081526004016105ad9190610da7565b60405180910390fd5b82600481815481106105cb576105ca6111b7565b5b906000526020600020906004020160030160009054906101000a900460ff161561062c57806040517f1b344ee70000000000000000000000000000000000000000000000000000000081526004016106239190610da7565b60405180910390fd5b600060048581548110610642576106416111b7565b5b9060005260206000209060040201905060018160020160008282546106679190611215565b9250508190555060016003600087815260200190815260200160002060003373ffffffffffffffffffffffffffffffffffffffff1673ffffffffffffffffffffffffffffffffffffffff16815260200190815260200160002060006101000a81548160ff02191690831515021790555060025481600201541061081b5760018160030160006101000a81548160ff02191690831515021790555060008160000160009054906101000a900473ffffffffffffffffffffffffffffffffffffffff1673ffffffffffffffffffffffffffffffffffffffff16826001015460405161074f9061127a565b60006040518083038185875af1925050503d806000811461078c576040519150601f19603f3d011682016040523d82523d6000602084013e610791565b606091505b50509050806107d5576040517f08c379a00000000000000000000000000000000000000000000000000000000081526004016107cc906112db565b60405180910390fd5b853373ffffffffffffffffffffffffffffffffffffffff167fe6266574c540a6eace832e59bc4fa1d3c8a6c570042f03f6eb69c252cb71395560405160405180910390a3505b5050505050565b60016020528060005260406000206000915054906101000a900460ff1681565b600160003373ffffffffffffffffffffffffffffffffffffffff1673ffffffffffffffffffffffffffffffffffffffff16815260200190815260200160002060009054906101000a900460ff166108ce576040517f08c379a00000000000000000000000000000000000000000000000000000000081526004016108c590611197565b60405180910390fd5b60006004805490509050600460405180608001604052808573ffffffffffffffffffffffffffffffffffffffff1681526020018481526020016000815260200160001515815250908060018154018082558091505060019003906000526020600020906004020160009091909190915060008201518160000160006101000a81548173ffffffffffffffffffffffffffffffffffffffff021916908373ffffffffffffffffffffffffffffffffffffffff160217905550602082015181600101556040820151816002015560608201518160030160006101000a81548160ff02191690831515021790555050508273ffffffffffffffffffffffffffffffffffffffff16813373ffffffffffffffffffffffffffffffffffffffff167f101a85d062d4f96045d6889441dd96dda5e818771df426a14e74d54b0ee9e1ce85604051610a199190610da7565b60405180910390a4505050565b60606004805480602002602001604051908101604052809291908181526020016000905b82821015610b0157838290600052602060002090600402016040518060800160405290816000820160009054906101000a900473ffffffffffffffffffffffffffffffffffffffff1673ffffffffffffffffffffffffffffffffffffffff1673ffffffffffffffffffffffffffffffffffffffff16815260200160018201548152602001600282015481526020016003820160009054906101000a900460ff16151515158152505081526020019060010190610a4a565b50505050905090565b60036020528160005260406000206020528060005260406000206000915091509054906101000a900460ff1681565b6000600480549050905090565b600047905090565b60606000805480602002602001604051908101604052809291908181526020018280548015610bd257602002820191906000526020600020905b8160009054906101000a900473ffffffffffffffffffffffffffffffffffffffff1673ffffffffffffffffffffffffffffffffffffffff1681526020019060010190808311610b88575b5050505050905090565b600080600080600060048681548110610bf857610bf76111b7565b5b906000526020600020906004020190508060000160009054906101000a900473ffffffffffffffffffffffffffffffffffffffff16816001015482600201548360030160009054906101000a900460ff169450945094509450509193509193565b3373ffffffffffffffffffffffffffffffffffffffff167f90890809c654f11d6e72a28fa60149770a0d11ec6c92319d6ceb2bb0a4ea1a153447604051610ca1929190610cc4565b60405180910390a2565b6000819050919050565b610cbe81610cab565b82525050565b6000604082019050610cd96000830185610cb5565b610ce66020830184610cb5565b9392505050565b600080fd5b610cfb81610cab565b8114610d0657600080fd5b50565b600081359050610d1881610cf2565b92915050565b600060208284031215610d3457610d33610ced565b5b6000610d4284828501610d09565b91505092915050565b600073ffffffffffffffffffffffffffffffffffffffff82169050919050565b6000610d7682610d4b565b9050919050565b610d8681610d6b565b82525050565b6000602082019050610da16000830184610d7d565b92915050565b6000602082019050610dbc6000830184610cb5565b92915050565b60008115159050919050565b610dd781610dc2565b82525050565b6000608082019050610df26000830187610d7d565b610dff6020830186610cb5565b610e0c6040830185610cb5565b610e196060830184610dce565b95945050505050565b610e2b81610d6b565b8114610e3657600080fd5b50565b600081359050610e4881610e22565b92915050565b600060208284031215610e6457610e63610ced565b5b6000610e7284828501610e39565b91505092915050565b6000602082019050610e906000830184610dce565b92915050565b60008060408385031215610ead57610eac610ced565b5b6000610ebb85828601610e39565b9250506020610ecc85828601610d09565b9150509250929050565b600081519050919050565b600082825260208201905092915050565b6000819050602082019050919050565b610f0b81610d6b565b82525050565b610f1a81610cab565b82525050565b610f2981610dc2565b82525050565b608082016000820151610f456000850182610f02565b506020820151610f586020850182610f11565b506040820151610f6b6040850182610f11565b506060820151610f7e6060850182610f20565b50505050565b6000610f908383610f2f565b60808301905092915050565b6000602082019050919050565b6000610fb482610ed6565b610fbe8185610ee1565b9350610fc983610ef2565b8060005b83811015610ffa578151610fe18882610f84565b9750610fec83610f9c565b925050600181019050610fcd565b5085935050505092915050565b600060208201905081810360008301526110218184610fa9565b905092915050565b600080604083850312156110405761103f610ced565b5b600061104e85828601610d09565b925050602061105f85828601610e39565b9150509250929050565b600081519050919050565b600082825260208201905092915050565b6000819050602082019050919050565b60006110a18383610f02565b60208301905092915050565b6000602082019050919050565b60006110c582611069565b6110cf8185611074565b93506110da83611085565b8060005b8381101561110b5781516110f28882611095565b97506110fd836110ad565b9250506001810190506110de565b5085935050505092915050565b6000602082019050818103600083015261113281846110ba565b905092915050565b600082825260208201905092915050565b7f6e6f74206f776e65720000000000000000000000000000000000000000000000600082015250565b600061118160098361113a565b915061118c8261114b565b602082019050919050565b600060208201905081810360008301526111b081611174565b9050919050565b7f4e487b7100000000000000000000000000000000000000000000000000000000600052603260045260246000fd5b7f4e487b7100000000000000000000000000000000000000000000000000000000600052601160045260246000fd5b600061122082610cab565b915061122b83610cab565b9250828201905080821115611243576112426111e6565b5b92915050565b600081905092915050565b50565b6000611264600083611249565b915061126f82611254565b600082019050919050565b600061128582611257565b9150819050919050565b7f7472616e73616374696f6e206661696c65640000000000000000000000000000600082015250565b60006112c560128361113a565b91506112d08261128f565b602082019050919050565b600060208201905081810360008301526112f4816112b8565b905091905056fea2646970667358221220cd36d31111fe2ab186759e67fb4e94aee1f50e5a13369309e6042891c7481ac964736f6c63430008180033",
  "linkReferences": {},
  "deployedLinkReferences": {}
}